{
  "contractName": "Report",
  "abi": [
    {
      "constant": true,
      "inputs": [],
      "name": "reportCount",
      "outputs": [
        {
          "internalType": "uint256",
          "name": "",
          "type": "uint256"
        }
      ],
      "payable": false,
      "stateMutability": "view",
      "type": "function"
    },
    {
      "constant": true,
      "inputs": [
        {
          "internalType": "uint256",
          "name": "",
          "type": "uint256"
        }
      ],
      "name": "reports",
      "outputs": [
        {
          "internalType": "uint256",
          "name": "id",
          "type": "uint256"
        },
        {
          "internalType": "string",
          "name": "reportHash",
          "type": "string"
        },
        {
          "internalType": "string",
          "name": "reportName",
          "type": "string"
        },
        {
          "internalType": "string",
          "name": "reportType",
          "type": "string"
        }
      ],
      "payable": false,
      "stateMutability": "view",
      "type": "function"
    },
    {
      "constant": false,
      "inputs": [
        {
          "internalType": "string",
          "name": "_reportHash",
          "type": "string"
        },
        {
          "internalType": "string",
          "name": "_reportName",
          "type": "string"
        },
        {
          "internalType": "string",
          "name": "_reportType",
          "type": "string"
        }
      ],
      "name": "createReport",
      "outputs": [],
      "payable": false,
      "stateMutability": "nonpayable",
      "type": "function"
    },
    {
      "constant": true,
      "inputs": [],
      "name": "getReportCount",
      "outputs": [
        {
          "internalType": "uint256",
          "name": "",
          "type": "uint256"
        }
      ],
      "payable": false,
      "stateMutability": "view",
      "type": "function"
    },
    {
      "constant": true,
      "inputs": [],
      "name": "getTrip",
      "outputs": [
        {
          "components": [
            {
              "internalType": "uint256",
              "name": "id",
              "type": "uint256"
            },
            {
              "internalType": "string",
              "name": "reportHash",
              "type": "string"
            },
            {
              "internalType": "string",
              "name": "reportName",
              "type": "string"
            },
            {
              "internalType": "string",
              "name": "reportType",
              "type": "string"
            }
          ],
          "internalType": "struct Report.ReportObj[]",
          "name": "",
          "type": "tuple[]"
        }
      ],
      "payable": false,
      "stateMutability": "view",
      "type": "function"
    }
  ],
  "bytecode": "0x60806040526000805534801561001457600080fd5b50610bdc806100246000396000f3fe608060405234801561001057600080fd5b50600436106100575760003560e01c8063185c6f841461005c57806318ecb2921461007a578063893fbece14610098578063c942adf7146100b4578063cad9642b146100e7575b600080fd5b610064610105565b60405161007191906109f1565b60405180910390f35b61008261010b565b60405161008f91906109cf565b60405180910390f35b6100b260048036036100ad9190810190610785565b61039d565b005b6100ce60048036036100c9919081019061081c565b61044e565b6040516100de9493929190610a0c565b60405180910390f35b6100ef610646565b6040516100fc91906109f1565b60405180910390f35b60005481565b60608060005460405190808252806020026020018201604052801561014a57816020015b61013761064f565b81526020019060019003908161012f5790505b50905060008090505b6000548110156103955760006001600083815260200190815260200160002090508060405180608001604052908160008201548152602001600182018054600181600116156101000203166002900480601f0160208091040260200160405190810160405280929190818152602001828054600181600116156101000203166002900480156102235780601f106101f857610100808354040283529160200191610223565b820191906000526020600020905b81548152906001019060200180831161020657829003601f168201915b50505050508152602001600282018054600181600116156101000203166002900480601f0160208091040260200160405190810160405280929190818152602001828054600181600116156101000203166002900480156102c55780601f1061029a576101008083540402835291602001916102c5565b820191906000526020600020905b8154815290600101906020018083116102a857829003601f168201915b50505050508152602001600382018054600181600116156101000203166002900480601f0160208091040260200160405190810160405280929190818152602001828054600181600116156101000203166002900480156103675780601f1061033c57610100808354040283529160200191610367565b820191906000526020600020905b81548152906001019060200180831161034a57829003601f168201915b50505050508152505083838151811061037c57fe5b6020026020010181905250508080600101915050610153565b508091505090565b604051806080016040528060005481526020018481526020018381526020018281525060016000805481526020019081526020016000206000820151816000015560208201518160010190805190602001906103fa929190610677565b506040820151816002019080519060200190610417929190610677565b506060820151816003019080519060200190610434929190610677565b509050506000808154809291906001019190505550505050565b6001602052806000526040600020600091509050806000015490806001018054600181600116156101000203166002900480601f0160208091040260200160405190810160405280929190818152602001828054600181600116156101000203166002900480156105005780601f106104d557610100808354040283529160200191610500565b820191906000526020600020905b8154815290600101906020018083116104e357829003601f168201915b505050505090806002018054600181600116156101000203166002900480601f01602080910402602001604051908101604052809291908181526020018280546001816001161561010002031660029004801561059e5780601f106105735761010080835404028352916020019161059e565b820191906000526020600020905b81548152906001019060200180831161058157829003601f168201915b505050505090806003018054600181600116156101000203166002900480601f01602080910402602001604051908101604052809291908181526020018280546001816001161561010002031660029004801561063c5780601f106106115761010080835404028352916020019161063c565b820191906000526020600020905b81548152906001019060200180831161061f57829003601f168201915b5050505050905084565b60008054905090565b6040518060800160405280600081526020016060815260200160608152602001606081525090565b828054600181600116156101000203166002900490600052602060002090601f016020900481019282601f106106b857805160ff19168380011785556106e6565b828001600101855582156106e6579182015b828111156106e55782518255916020019190600101906106ca565b5b5090506106f391906106f7565b5090565b61071991905b808211156107155760008160009055506001016106fd565b5090565b90565b600082601f83011261072d57600080fd5b813561074061073b82610a93565b610a66565b9150808252602083016020830185838301111561075c57600080fd5b610767838284610b2f565b50505092915050565b60008135905061077f81610b82565b92915050565b60008060006060848603121561079a57600080fd5b600084013567ffffffffffffffff8111156107b457600080fd5b6107c08682870161071c565b935050602084013567ffffffffffffffff8111156107dd57600080fd5b6107e98682870161071c565b925050604084013567ffffffffffffffff81111561080657600080fd5b6108128682870161071c565b9150509250925092565b60006020828403121561082e57600080fd5b600061083c84828501610770565b91505092915050565b60006108518383610940565b905092915050565b600061086482610acf565b61086e8185610af2565b93508360208202850161088085610abf565b8060005b858110156108bc578484038952815161089d8582610845565b94506108a883610ae5565b925060208a01995050600181019050610884565b50829750879550505050505092915050565b60006108d982610ada565b6108e38185610b03565b93506108f3818560208601610b3e565b6108fc81610b71565b840191505092915050565b600061091282610ada565b61091c8185610b14565b935061092c818560208601610b3e565b61093581610b71565b840191505092915050565b600060808301600083015161095860008601826109b1565b506020830151848203602086015261097082826108ce565b9150506040830151848203604086015261098a82826108ce565b915050606083015184820360608601526109a482826108ce565b9150508091505092915050565b6109ba81610b25565b82525050565b6109c981610b25565b82525050565b600060208201905081810360008301526109e98184610859565b905092915050565b6000602082019050610a0660008301846109c0565b92915050565b6000608082019050610a2160008301876109c0565b8181036020830152610a338186610907565b90508181036040830152610a478185610907565b90508181036060830152610a5b8184610907565b905095945050505050565b6000604051905081810181811067ffffffffffffffff82111715610a8957600080fd5b8060405250919050565b600067ffffffffffffffff821115610aaa57600080fd5b601f19601f8301169050602081019050919050565b6000819050602082019050919050565b600081519050919050565b600081519050919050565b6000602082019050919050565b600082825260208201905092915050565b600082825260208201905092915050565b600082825260208201905092915050565b6000819050919050565b82818337600083830152505050565b60005b83811015610b5c578082015181840152602081019050610b41565b83811115610b6b576000848401525b50505050565b6000601f19601f8301169050919050565b610b8b81610b25565b8114610b9657600080fd5b5056fea365627a7a72315820433d0411c030b1fbb4437fbfed39043e1bd028335c90f461362ad403935537896c6578706572696d656e74616cf564736f6c63430005100040",
  "source": "pragma solidity ^0.5.0;\npragma experimental ABIEncoderV2;\n\ncontract Report{\n    uint public reportCount = 0;\n\n    struct ReportObj{\n      uint id;\n      string reportHash;\n      string reportName;\n      string reportType;\n    }\n\n    mapping(uint => ReportObj) public reports;\n\n    function createReport(string memory _reportHash, string memory _reportName, string memory _reportType) public{\n        reports[reportCount] = ReportObj(reportCount, _reportHash, _reportName,_reportType);\n        reportCount ++;\n\n\n    }\n\n    function getReportCount() view public returns (uint) {\n      return reportCount;\n    }\n\n    function getTrip() public view returns (ReportObj[] memory){\n      ReportObj[] memory trrips = new ReportObj[](reportCount);\n      for (uint i = 0; i < reportCount; i++) {\n          ReportObj storage trrip = reports[i];\n          trrips[i] = trrip;\n      }\n      return trrips;\n  }\n}\n",
  "sourcePath": "/home/emre/Desktop/pars-ipfs/src/contracts/Report.sol",
  "compiler": {
    "name": "solc",
    "version": "0.5.16+commit.9c3226ce.Emscripten.clang"
  },
  "schemaVersion": "3.3.4",
  "updatedAt": "2021-02-21T18:34:35.823Z",
  "networkType": "ethereum",
  "devdoc": {
    "methods": {}
  },
  "userdoc": {
    "methods": {}
  }
}