{
  "contractName": "pars",
  "abi": [
    {
      "inputs": [],
      "stateMutability": "nonpayable",
      "type": "constructor"
    },
    {
      "inputs": [
        {
          "internalType": "address",
          "name": "_userAddress",
          "type": "address"
        },
        {
          "internalType": "string",
          "name": "_role",
          "type": "string"
        }
      ],
      "name": "setUserRole",
      "outputs": [],
      "stateMutability": "nonpayable",
      "type": "function"
    },
    {
      "inputs": [
        {
          "internalType": "address",
          "name": "_userAddress",
          "type": "address"
        }
      ],
      "name": "getUserRole",
      "outputs": [
        {
          "internalType": "string",
          "name": "",
          "type": "string"
        }
      ],
      "stateMutability": "view",
      "type": "function",
      "constant": true
    },
    {
      "inputs": [
        {
          "internalType": "string",
          "name": "_reportHash",
          "type": "string"
        },
        {
          "internalType": "string",
          "name": "_reportName",
          "type": "string"
        },
        {
          "internalType": "string",
          "name": "_reportType",
          "type": "string"
        }
      ],
      "name": "createReport",
      "outputs": [],
      "stateMutability": "nonpayable",
      "type": "function"
    },
    {
      "inputs": [
        {
          "internalType": "uint256",
          "name": "_reportID",
          "type": "uint256"
        }
      ],
      "name": "validateReport",
      "outputs": [],
      "stateMutability": "nonpayable",
      "type": "function"
    },
    {
      "inputs": [
        {
          "internalType": "uint256",
          "name": "_reportID",
          "type": "uint256"
        }
      ],
      "name": "invalidateReport",
      "outputs": [],
      "stateMutability": "nonpayable",
      "type": "function"
    },
    {
      "inputs": [],
      "name": "getAllReports",
      "outputs": [
        {
          "components": [
            {
              "internalType": "uint256",
              "name": "reportID",
              "type": "uint256"
            },
            {
              "internalType": "string",
              "name": "reportHash",
              "type": "string"
            },
            {
              "internalType": "string",
              "name": "reportName",
              "type": "string"
            },
            {
              "internalType": "string",
              "name": "reportType",
              "type": "string"
            }
          ],
          "internalType": "struct pars.Report[]",
          "name": "",
          "type": "tuple[]"
        }
      ],
      "stateMutability": "view",
      "type": "function",
      "constant": true
    },
    {
      "inputs": [],
      "name": "getValidReports",
      "outputs": [
        {
          "components": [
            {
              "internalType": "uint256",
              "name": "reportID",
              "type": "uint256"
            },
            {
              "internalType": "string",
              "name": "reportHash",
              "type": "string"
            },
            {
              "internalType": "string",
              "name": "reportName",
              "type": "string"
            },
            {
              "internalType": "string",
              "name": "reportType",
              "type": "string"
            }
          ],
          "internalType": "struct pars.Report[]",
          "name": "",
          "type": "tuple[]"
        }
      ],
      "stateMutability": "view",
      "type": "function",
      "constant": true
    },
    {
      "inputs": [],
      "name": "getReportCount",
      "outputs": [
        {
          "internalType": "uint256",
          "name": "",
          "type": "uint256"
        }
      ],
      "stateMutability": "view",
      "type": "function",
      "constant": true
    }
  ],
  "bytecode": "0x60806040523480156200001157600080fd5b506040518060400160405280600a81526020017f53555045525649534f5200000000000000000000000000000000000000000000815250600360003373ffffffffffffffffffffffffffffffffffffffff1673ffffffffffffffffffffffffffffffffffffffff16815260200190815260200160002090805190602001906200009c929190620000a3565b50620001b8565b828054620000b19062000153565b90600052602060002090601f016020900481019282620000d5576000855562000121565b82601f10620000f057805160ff191683800117855562000121565b8280016001018555821562000121579182015b828111156200012057825182559160200191906001019062000103565b5b50905062000130919062000134565b5090565b5b808211156200014f57600081600090555060010162000135565b5090565b600060028204905060018216806200016c57607f821691505b6020821081141562000183576200018262000189565b5b50919050565b7f4e487b7100000000000000000000000000000000000000000000000000000000600052602260045260246000fd5b611baf80620001c86000396000f3fe608060405234801561001057600080fd5b50600436106100885760003560e01c8063893fbece1161005b578063893fbece14610111578063cad9642b1461012d578063d5051e061461014b578063f3d3ddfa1461016957610088565b8063278208511461008d5780633f49b09d146100bd5780634030f712146100d9578063724de979146100f5575b600080fd5b6100a760048036038101906100a29190611510565b610187565b6040516100b49190611879565b60405180910390f35b6100d760048036038101906100d29190611624565b610258565b005b6100f360048036038101906100ee9190611624565b610708565b005b61010f600480360381019061010a9190611539565b610bb8565b005b61012b6004803603810190610126919061158d565b610cdd565b005b610135610f54565b60405161014291906118bd565b60405180910390f35b610153610f5d565b6040516101609190611857565b60405180910390f35b61017161117c565b60405161017e9190611857565b60405180910390f35b6060600360008373ffffffffffffffffffffffffffffffffffffffff1673ffffffffffffffffffffffffffffffffffffffff16815260200190815260200160002080546101d390611a32565b80601f01602080910402602001604051908101604052809291908181526020018280546101ff90611a32565b801561024c5780601f106102215761010080835404028352916020019161024c565b820191906000526020600020905b81548152906001019060200180831161022f57829003601f168201915b50505050509050919050565b6040518060400160405280600a81526020017f53555045525649534f52000000000000000000000000000000000000000000008152508060405160200161029f9190611879565b60405160208183030381529060405280519060200120600360003373ffffffffffffffffffffffffffffffffffffffff1673ffffffffffffffffffffffffffffffffffffffff168152602001908152602001600020604051602001610304919061189b565b604051602081830303815290604052805190602001201461032457600080fd5b6000600460008481526020019081526020016000206040518060800160405290816000820154815260200160018201805461035e90611a32565b80601f016020809104026020016040519081016040528092919081815260200182805461038a90611a32565b80156103d75780601f106103ac576101008083540402835291602001916103d7565b820191906000526020600020905b8154815290600101906020018083116103ba57829003601f168201915b505050505081526020016002820180546103f090611a32565b80601f016020809104026020016040519081016040528092919081815260200182805461041c90611a32565b80156104695780601f1061043e57610100808354040283529160200191610469565b820191906000526020600020905b81548152906001019060200180831161044c57829003601f168201915b5050505050815260200160038201805461048290611a32565b80601f01602080910402602001604051908101604052809291908181526020018280546104ae90611a32565b80156104fb5780601f106104d0576101008083540402835291602001916104fb565b820191906000526020600020905b8154815290600101906020018083116104de57829003601f168201915b50505050508152505090506040518060400160405280600781526020017f494e56414c49440000000000000000000000000000000000000000000000000081525060056000858152602001908152602001600020908051906020019061056292919061139b565b5060018190806001815401808255809150506001900390600052602060002090600402016000909190919091506000820151816000015560208201518160010190805190602001906105b592919061139b565b5060408201518160020190805190602001906105d292919061139b565b5060608201518160030190805190602001906105ef92919061139b565b50505060005b60028054905081101561070257600460008581526020019081526020016000206000015460028281548110610653577f4e487b7100000000000000000000000000000000000000000000000000000000600052603260045260246000fd5b90600052602060002090600402016000015414156106ef57600281815481106106a5577f4e487b7100000000000000000000000000000000000000000000000000000000600052603260045260246000fd5b90600052602060002090600402016000808201600090556001820160006106cc9190611421565b6002820160006106dc9190611421565b6003820160006106ec9190611421565b50505b80806106fa90611a64565b9150506105f5565b50505050565b6040518060400160405280600a81526020017f53555045525649534f52000000000000000000000000000000000000000000008152508060405160200161074f9190611879565b60405160208183030381529060405280519060200120600360003373ffffffffffffffffffffffffffffffffffffffff1673ffffffffffffffffffffffffffffffffffffffff1681526020019081526020016000206040516020016107b4919061189b565b60405160208183030381529060405280519060200120146107d457600080fd5b6000600460008481526020019081526020016000206040518060800160405290816000820154815260200160018201805461080e90611a32565b80601f016020809104026020016040519081016040528092919081815260200182805461083a90611a32565b80156108875780601f1061085c57610100808354040283529160200191610887565b820191906000526020600020905b81548152906001019060200180831161086a57829003601f168201915b505050505081526020016002820180546108a090611a32565b80601f01602080910402602001604051908101604052809291908181526020018280546108cc90611a32565b80156109195780601f106108ee57610100808354040283529160200191610919565b820191906000526020600020905b8154815290600101906020018083116108fc57829003601f168201915b5050505050815260200160038201805461093290611a32565b80601f016020809104026020016040519081016040528092919081815260200182805461095e90611a32565b80156109ab5780601f10610980576101008083540402835291602001916109ab565b820191906000526020600020905b81548152906001019060200180831161098e57829003601f168201915b50505050508152505090506040518060400160405280600581526020017f56414c4944000000000000000000000000000000000000000000000000000000815250600560008581526020019081526020016000209080519060200190610a1292919061139b565b506002819080600181540180825580915050600190039060005260206000209060040201600090919091909150600082015181600001556020820151816001019080519060200190610a6592919061139b565b506040820151816002019080519060200190610a8292919061139b565b506060820151816003019080519060200190610a9f92919061139b565b50505060005b600180549050811015610bb257600460008581526020019081526020016000206000015460018281548110610b03577f4e487b7100000000000000000000000000000000000000000000000000000000600052603260045260246000fd5b9060005260206000209060040201600001541415610b9f5760018181548110610b55577f4e487b7100000000000000000000000000000000000000000000000000000000600052603260045260246000fd5b9060005260206000209060040201600080820160009055600182016000610b7c9190611421565b600282016000610b8c9190611421565b600382016000610b9c9190611421565b50505b8080610baa90611a64565b915050610aa5565b50505050565b6040518060400160405280600a81526020017f53555045525649534f520000000000000000000000000000000000000000000081525080604051602001610bff9190611879565b60405160208183030381529060405280519060200120600360003373ffffffffffffffffffffffffffffffffffffffff1673ffffffffffffffffffffffffffffffffffffffff168152602001908152602001600020604051602001610c64919061189b565b6040516020818303038152906040528051906020012014610c8457600080fd5b81600360008573ffffffffffffffffffffffffffffffffffffffff1673ffffffffffffffffffffffffffffffffffffffff1681526020019081526020016000209080519060200190610cd792919061139b565b50505050565b6040518060400160405280600881526020017f4c41424f52414e5400000000000000000000000000000000000000000000000081525080604051602001610d249190611879565b60405160208183030381529060405280519060200120600360003373ffffffffffffffffffffffffffffffffffffffff1673ffffffffffffffffffffffffffffffffffffffff168152602001908152602001600020604051602001610d89919061189b565b6040516020818303038152906040528051906020012014610da957600080fd5b600060405180608001604052806000548152602001868152602001858152602001848152509050806004600080548152602001908152602001600020600082015181600001556020820151816001019080519060200190610e0b92919061139b565b506040820151816002019080519060200190610e2892919061139b565b506060820151816003019080519060200190610e4592919061139b565b509050506040518060400160405280600781526020017f494e56414c49440000000000000000000000000000000000000000000000000081525060056000805481526020019081526020016000209080519060200190610ea692919061139b565b506001819080600181540180825580915050600190039060005260206000209060040201600090919091909150600082015181600001556020820151816001019080519060200190610ef992919061139b565b506040820151816002019080519060200190610f1692919061139b565b506060820151816003019080519060200190610f3392919061139b565b505050600080815480929190610f4890611a64565b91905055505050505050565b60008054905090565b60606002805480602002602001604051908101604052809291908181526020016000905b82821015611173578382906000526020600020906004020160405180608001604052908160008201548152602001600182018054610fbe90611a32565b80601f0160208091040260200160405190810160405280929190818152602001828054610fea90611a32565b80156110375780601f1061100c57610100808354040283529160200191611037565b820191906000526020600020905b81548152906001019060200180831161101a57829003601f168201915b5050505050815260200160028201805461105090611a32565b80601f016020809104026020016040519081016040528092919081815260200182805461107c90611a32565b80156110c95780601f1061109e576101008083540402835291602001916110c9565b820191906000526020600020905b8154815290600101906020018083116110ac57829003601f168201915b505050505081526020016003820180546110e290611a32565b80601f016020809104026020016040519081016040528092919081815260200182805461110e90611a32565b801561115b5780601f106111305761010080835404028352916020019161115b565b820191906000526020600020905b81548152906001019060200180831161113e57829003601f168201915b50505050508152505081526020019060010190610f81565b50505050905090565b60606001805480602002602001604051908101604052809291908181526020016000905b828210156113925783829060005260206000209060040201604051806080016040529081600082015481526020016001820180546111dd90611a32565b80601f016020809104026020016040519081016040528092919081815260200182805461120990611a32565b80156112565780601f1061122b57610100808354040283529160200191611256565b820191906000526020600020905b81548152906001019060200180831161123957829003601f168201915b5050505050815260200160028201805461126f90611a32565b80601f016020809104026020016040519081016040528092919081815260200182805461129b90611a32565b80156112e85780601f106112bd576101008083540402835291602001916112e8565b820191906000526020600020905b8154815290600101906020018083116112cb57829003601f168201915b5050505050815260200160038201805461130190611a32565b80601f016020809104026020016040519081016040528092919081815260200182805461132d90611a32565b801561137a5780601f1061134f5761010080835404028352916020019161137a565b820191906000526020600020905b81548152906001019060200180831161135d57829003601f168201915b505050505081525050815260200190600101906111a0565b50505050905090565b8280546113a790611a32565b90600052602060002090601f0160209004810192826113c95760008555611410565b82601f106113e257805160ff1916838001178555611410565b82800160010185558215611410579182015b8281111561140f5782518255916020019190600101906113f4565b5b50905061141d9190611461565b5090565b50805461142d90611a32565b6000825580601f1061143f575061145e565b601f01602090049060005260206000209081019061145d9190611461565b5b50565b5b8082111561147a576000816000905550600101611462565b5090565b600061149161148c84611909565b6118d8565b9050828152602081018484840111156114a957600080fd5b6114b48482856119f0565b509392505050565b6000813590506114cb81611b4b565b92915050565b600082601f8301126114e257600080fd5b81356114f284826020860161147e565b91505092915050565b60008135905061150a81611b62565b92915050565b60006020828403121561152257600080fd5b6000611530848285016114bc565b91505092915050565b6000806040838503121561154c57600080fd5b600061155a858286016114bc565b925050602083013567ffffffffffffffff81111561157757600080fd5b611583858286016114d1565b9150509250929050565b6000806000606084860312156115a257600080fd5b600084013567ffffffffffffffff8111156115bc57600080fd5b6115c8868287016114d1565b935050602084013567ffffffffffffffff8111156115e557600080fd5b6115f1868287016114d1565b925050604084013567ffffffffffffffff81111561160e57600080fd5b61161a868287016114d1565b9150509250925092565b60006020828403121561163657600080fd5b6000611644848285016114fb565b91505092915050565b600061165983836117c8565b905092915050565b600061166c8261195e565b6116768185611981565b93508360208202850161168885611939565b8060005b858110156116c457848403895281516116a5858261164d565b94506116b083611974565b925060208a0199505060018101905061168c565b50829750879550505050505092915050565b60006116e182611969565b6116eb8185611992565b93506116fb8185602086016119ff565b61170481611b3a565b840191505092915050565b600061171a82611969565b61172481856119a3565b93506117348185602086016119ff565b61173d81611b3a565b840191505092915050565b6000815461175581611a32565b61175f81866119a3565b9450600182166000811461177a576001811461178c576117bf565b60ff19831686526020860193506117bf565b61179585611949565b60005b838110156117b757815481890152600182019150602081019050611798565b808801955050505b50505092915050565b60006080830160008301516117e06000860182611839565b50602083015184820360208601526117f882826116d6565b9150506040830151848203604086015261181282826116d6565b9150506060830151848203606086015261182c82826116d6565b9150508091505092915050565b611842816119e6565b82525050565b611851816119e6565b82525050565b600060208201905081810360008301526118718184611661565b905092915050565b60006020820190508181036000830152611893818461170f565b905092915050565b600060208201905081810360008301526118b58184611748565b905092915050565b60006020820190506118d26000830184611848565b92915050565b6000604051905081810181811067ffffffffffffffff821117156118ff576118fe611b0b565b5b8060405250919050565b600067ffffffffffffffff82111561192457611923611b0b565b5b601f19601f8301169050602081019050919050565b6000819050602082019050919050565b60008190508160005260206000209050919050565b600081519050919050565b600081519050919050565b6000602082019050919050565b600082825260208201905092915050565b600082825260208201905092915050565b600082825260208201905092915050565b60006119bf826119c6565b9050919050565b600073ffffffffffffffffffffffffffffffffffffffff82169050919050565b6000819050919050565b82818337600083830152505050565b60005b83811015611a1d578082015181840152602081019050611a02565b83811115611a2c576000848401525b50505050565b60006002820490506001821680611a4a57607f821691505b60208210811415611a5e57611a5d611adc565b5b50919050565b6000611a6f826119e6565b91507fffffffffffffffffffffffffffffffffffffffffffffffffffffffffffffffff821415611aa257611aa1611aad565b5b600182019050919050565b7f4e487b7100000000000000000000000000000000000000000000000000000000600052601160045260246000fd5b7f4e487b7100000000000000000000000000000000000000000000000000000000600052602260045260246000fd5b7f4e487b7100000000000000000000000000000000000000000000000000000000600052604160045260246000fd5b6000601f19601f8301169050919050565b611b54816119b4565b8114611b5f57600080fd5b50565b611b6b816119e6565b8114611b7657600080fd5b5056fea264697066735822122078ef4e9cd1695a7b41c4b03321efa22262e9500a761e0e160e3e0e7db313e5cf64736f6c63430008000033",
  "source": "pragma solidity ^0.8.0;\npragma experimental ABIEncoderV2;\ncontract pars{\n    \n    // Kontrat deploy edildiinde deploy eden adresi alr ve onu admin rolne eitler.\n    constructor() public {\n        RolesMap[msg.sender] = \"SUPERVISOR\";\n    }\n    \n    // Report adnda bir yap oluturduk yapnn sahip olduu zellikleri tanmladk.\n    struct Report{\n        uint256 reportID;\n        string reportHash;\n        string reportName;\n        string reportType;\n    }\n\n    // kontrat tarafndan oluturulmu toplam rapor saysnn atanaca deiken.\n    uint256 TotalReportsCount;\n\n\n    Report[] ReportsList;\n    Report[] ValidReportsList;\n\n    mapping(address => string) RolesMap;\n\n    // Reportnin iindeki reportID yi Report ile maplemak iin olutuduruumuz map ilemi. \n    mapping(uint256 => Report) ReportsMap;    \n            \n    mapping(uint256 => string) ReportsValidity;\n\n    // buras rol kontrol eden bir yap bu yapy fonksiyonlarn ierisine ekleyerek sadece admin rolune sahip adreslerin o fonksiyonlar altrmas salanr.\n    modifier checkRole(string memory _role) {\n        require(\n            keccak256(abi.encode(RolesMap[msg.sender])) ==\n                keccak256(abi.encode(_role))\n        );\n        _;\n    }\n    \n     // bunu sadece admin arabilir.(checkAuth yaps sayesinde). stediimiz rolleri adreslere atayabiliriz.\n    function setUserRole(address _userAddress, string memory _role)\n        public\n        checkRole(\"SUPERVISOR\")\n    {\n        RolesMap[_userAddress] = _role;\n    }\n    \n     // adreslere atadmz rolleri buradan kontrol edebiliriz. bunu grntlemek iin de admin olmaa art checkAuth la salanmtr.\n    function getUserRole(address _userAddress)\n        public\n        view\n        returns (string memory)\n    {\n        return RolesMap[_userAddress];\n    }\n    \n    //bu fonksiyon parametre olarak Report alarak ReportList'e kayt eklememizi salar. \n    function createReport(\n        string memory _reportHash,\n        string memory _reportName,\n        string memory _reportType\n        ) public checkRole(\"LABORANT\") {                     //bu fonksyionu sadece CREATER rolne sahip adresler altrabilir.\n            Report memory newReport = Report({     //parametre olarak aldmz deerlerin Reportnin hangi deelrerine eitlememiz gerektiini atadmz yer\n                reportID: TotalReportsCount,\n                reportHash: _reportHash,\n                reportName: _reportName,                            \n                reportType: _reportType\n            });\n        \n        ReportsMap[TotalReportsCount] = newReport;  \n        ReportsValidity[TotalReportsCount] = \"INVALID\";\n        ReportsList.push(newReport);\n        TotalReportsCount++;\n\n    }\n\n\n    function validateReport(uint256 _reportID) public checkRole(\"SUPERVISOR\"){\n        Report memory report = ReportsMap[_reportID];\n        ReportsValidity[_reportID] = \"VALID\";\n        ValidReportsList.push(report);\n        for(uint256 x = 0; x < ReportsList.length; x++){\n            if(ReportsList[x].reportID == ReportsMap[_reportID].reportID){\n                delete ReportsList[x];\n            }\n        }\n        \n\n    }\n\n    function invalidateReport(uint256 _reportID) public checkRole(\"SUPERVISOR\"){\n        Report memory report = ReportsMap[_reportID];\n        ReportsValidity[_reportID] = \"INVALID\";\n        ReportsList.push(report);\n        for(uint256 x = 0; x < ValidReportsList.length; x++){\n            if(ValidReportsList[x].reportID == ReportsMap[_reportID].reportID){\n                delete ValidReportsList[x];\n            }\n        }\n    }\n    \n    /* // GET REPORT FUNCTIONS\n    function getReport(uint256 reportID) public view returns(string memory reportHash, string memory reportName, string memory reportType){\n        Report memory report = ReportsMap[reportID];\n        return (report.reportHash, report.reportName, report.reportType); \n    }*/\n\n    function getAllReports() public view returns (Report[] memory) {\n        return ReportsList;\n    }\n\n    function getValidReports() public view returns (Report[] memory) {\n        return ValidReportsList;\n    }\n\n    function getReportCount() public view returns(uint256){\n        return TotalReportsCount;\n    }\n}\n\n\n\n\n",
  "sourcePath": "/home/murat/Desktop/pars2/contracts/pars.sol",
  "compiler": {
    "name": "solc",
    "version": "0.8.0+commit.c7dfd78e.Emscripten.clang"
  },
  "schemaVersion": "3.0.9",
  "updatedAt": "2021-06-22T15:25:07.092Z",
  "devdoc": {
    "kind": "dev",
    "methods": {},
    "version": 1
  },
  "userdoc": {
    "kind": "user",
    "methods": {},
    "version": 1
  }
}