{
  "contractName": "parsp",
  "abi": [
    {
      "inputs": [],
      "stateMutability": "nonpayable",
      "type": "constructor"
    },
    {
      "inputs": [
        {
          "internalType": "address",
          "name": "_userAddress",
          "type": "address"
        },
        {
          "internalType": "string",
          "name": "_role",
          "type": "string"
        }
      ],
      "name": "setUserRole",
      "outputs": [],
      "stateMutability": "nonpayable",
      "type": "function"
    },
    {
      "inputs": [
        {
          "internalType": "address",
          "name": "_userAddress",
          "type": "address"
        }
      ],
      "name": "getUserRole",
      "outputs": [
        {
          "internalType": "string",
          "name": "",
          "type": "string"
        }
      ],
      "stateMutability": "view",
      "type": "function"
    },
    {
      "inputs": [
        {
          "internalType": "string",
          "name": "_reportHash",
          "type": "string"
        },
        {
          "internalType": "string",
          "name": "_reportName",
          "type": "string"
        },
        {
          "internalType": "string",
          "name": "_reportType",
          "type": "string"
        }
      ],
      "name": "createReport",
      "outputs": [],
      "stateMutability": "nonpayable",
      "type": "function"
    },
    {
      "inputs": [],
      "name": "getAllReports",
      "outputs": [
        {
          "components": [
            {
              "internalType": "uint256",
              "name": "reportID",
              "type": "uint256"
            },
            {
              "internalType": "string",
              "name": "reportHash",
              "type": "string"
            },
            {
              "internalType": "string",
              "name": "reportName",
              "type": "string"
            },
            {
              "internalType": "string",
              "name": "reportType",
              "type": "string"
            }
          ],
          "internalType": "struct parsp.Report[]",
          "name": "",
          "type": "tuple[]"
        }
      ],
      "stateMutability": "view",
      "type": "function"
    },
    {
      "inputs": [],
      "name": "getReportCount",
      "outputs": [
        {
          "internalType": "uint256",
          "name": "",
          "type": "uint256"
        }
      ],
      "stateMutability": "view",
      "type": "function"
    }
  ],
  "bytecode": "0x60806040523480156200001157600080fd5b506040518060400160405280600a81526020017f53555045525649534f5200000000000000000000000000000000000000000000815250600360003373ffffffffffffffffffffffffffffffffffffffff1673ffffffffffffffffffffffffffffffffffffffff16815260200190815260200160002090805190602001906200009c929190620000a3565b50620001b8565b828054620000b19062000153565b90600052602060002090601f016020900481019282620000d5576000855562000121565b82601f10620000f057805160ff191683800117855562000121565b8280016001018555821562000121579182015b828111156200012057825182559160200191906001019062000103565b5b50905062000130919062000134565b5090565b5b808211156200014f57600081600090555060010162000135565b5090565b600060028204905060018216806200016c57607f821691505b6020821081141562000183576200018262000189565b5b50919050565b7f4e487b7100000000000000000000000000000000000000000000000000000000600052602260045260246000fd5b610f1480620001c86000396000f3fe608060405234801561001057600080fd5b50600436106100575760003560e01c8063278208511461005c578063724de9791461008c578063893fbece146100a8578063cad9642b146100c4578063f3d3ddfa146100e2575b600080fd5b610076600480360381019061007191906108b5565b610100565b6040516100839190610bf5565b60405180910390f35b6100a660048036038101906100a191906108de565b6101d1565b005b6100c260048036038101906100bd9190610932565b6102f6565b005b6100cc61056d565b6040516100d99190610c39565b60405180910390f35b6100ea610576565b6040516100f79190610bd3565b60405180910390f35b6060600360008373ffffffffffffffffffffffffffffffffffffffff1673ffffffffffffffffffffffffffffffffffffffff168152602001908152602001600020805461014c90610dae565b80601f016020809104026020016040519081016040528092919081815260200182805461017890610dae565b80156101c55780601f1061019a576101008083540402835291602001916101c5565b820191906000526020600020905b8154815290600101906020018083116101a857829003601f168201915b50505050509050919050565b6040518060400160405280600a81526020017f53555045525649534f5200000000000000000000000000000000000000000000815250806040516020016102189190610bf5565b60405160208183030381529060405280519060200120600360003373ffffffffffffffffffffffffffffffffffffffff1673ffffffffffffffffffffffffffffffffffffffff16815260200190815260200160002060405160200161027d9190610c17565b604051602081830303815290604052805190602001201461029d57600080fd5b81600360008573ffffffffffffffffffffffffffffffffffffffff1673ffffffffffffffffffffffffffffffffffffffff16815260200190815260200160002090805190602001906102f0929190610795565b50505050565b6040518060400160405280600881526020017f4c41424f52414e540000000000000000000000000000000000000000000000008152508060405160200161033d9190610bf5565b60405160208183030381529060405280519060200120600360003373ffffffffffffffffffffffffffffffffffffffff1673ffffffffffffffffffffffffffffffffffffffff1681526020019081526020016000206040516020016103a29190610c17565b60405160208183030381529060405280519060200120146103c257600080fd5b600060405180608001604052806000548152602001868152602001858152602001848152509050806004600080548152602001908152602001600020600082015181600001556020820151816001019080519060200190610424929190610795565b506040820151816002019080519060200190610441929190610795565b50606082015181600301908051906020019061045e929190610795565b509050506040518060400160405280600781526020017f494e56414c494400000000000000000000000000000000000000000000000000815250600560008054815260200190815260200160002090805190602001906104bf929190610795565b506001819080600181540180825580915050600190039060005260206000209060040201600090919091909150600082015181600001556020820151816001019080519060200190610512929190610795565b50604082015181600201908051906020019061052f929190610795565b50606082015181600301908051906020019061054c929190610795565b50505060008081548092919061056190610de0565b91905055505050505050565b60008054905090565b60606001805480602002602001604051908101604052809291908181526020016000905b8282101561078c5783829060005260206000209060040201604051806080016040529081600082015481526020016001820180546105d790610dae565b80601f016020809104026020016040519081016040528092919081815260200182805461060390610dae565b80156106505780601f1061062557610100808354040283529160200191610650565b820191906000526020600020905b81548152906001019060200180831161063357829003601f168201915b5050505050815260200160028201805461066990610dae565b80601f016020809104026020016040519081016040528092919081815260200182805461069590610dae565b80156106e25780601f106106b7576101008083540402835291602001916106e2565b820191906000526020600020905b8154815290600101906020018083116106c557829003601f168201915b505050505081526020016003820180546106fb90610dae565b80601f016020809104026020016040519081016040528092919081815260200182805461072790610dae565b80156107745780601f1061074957610100808354040283529160200191610774565b820191906000526020600020905b81548152906001019060200180831161075757829003601f168201915b5050505050815250508152602001906001019061059a565b50505050905090565b8280546107a190610dae565b90600052602060002090601f0160209004810192826107c3576000855561080a565b82601f106107dc57805160ff191683800117855561080a565b8280016001018555821561080a579182015b828111156108095782518255916020019190600101906107ee565b5b509050610817919061081b565b5090565b5b8082111561083457600081600090555060010161081c565b5090565b600061084b61084684610c85565b610c54565b90508281526020810184848401111561086357600080fd5b61086e848285610d6c565b509392505050565b60008135905061088581610ec7565b92915050565b600082601f83011261089c57600080fd5b81356108ac848260208601610838565b91505092915050565b6000602082840312156108c757600080fd5b60006108d584828501610876565b91505092915050565b600080604083850312156108f157600080fd5b60006108ff85828601610876565b925050602083013567ffffffffffffffff81111561091c57600080fd5b6109288582860161088b565b9150509250929050565b60008060006060848603121561094757600080fd5b600084013567ffffffffffffffff81111561096157600080fd5b61096d8682870161088b565b935050602084013567ffffffffffffffff81111561098a57600080fd5b6109968682870161088b565b925050604084013567ffffffffffffffff8111156109b357600080fd5b6109bf8682870161088b565b9150509250925092565b60006109d58383610b44565b905092915050565b60006109e882610cda565b6109f28185610cfd565b935083602082028501610a0485610cb5565b8060005b85811015610a405784840389528151610a2185826109c9565b9450610a2c83610cf0565b925060208a01995050600181019050610a08565b50829750879550505050505092915050565b6000610a5d82610ce5565b610a678185610d0e565b9350610a77818560208601610d7b565b610a8081610eb6565b840191505092915050565b6000610a9682610ce5565b610aa08185610d1f565b9350610ab0818560208601610d7b565b610ab981610eb6565b840191505092915050565b60008154610ad181610dae565b610adb8186610d1f565b94506001821660008114610af65760018114610b0857610b3b565b60ff1983168652602086019350610b3b565b610b1185610cc5565b60005b83811015610b3357815481890152600182019150602081019050610b14565b808801955050505b50505092915050565b6000608083016000830151610b5c6000860182610bb5565b5060208301518482036020860152610b748282610a52565b91505060408301518482036040860152610b8e8282610a52565b91505060608301518482036060860152610ba88282610a52565b9150508091505092915050565b610bbe81610d62565b82525050565b610bcd81610d62565b82525050565b60006020820190508181036000830152610bed81846109dd565b905092915050565b60006020820190508181036000830152610c0f8184610a8b565b905092915050565b60006020820190508181036000830152610c318184610ac4565b905092915050565b6000602082019050610c4e6000830184610bc4565b92915050565b6000604051905081810181811067ffffffffffffffff82111715610c7b57610c7a610e87565b5b8060405250919050565b600067ffffffffffffffff821115610ca057610c9f610e87565b5b601f19601f8301169050602081019050919050565b6000819050602082019050919050565b60008190508160005260206000209050919050565b600081519050919050565b600081519050919050565b6000602082019050919050565b600082825260208201905092915050565b600082825260208201905092915050565b600082825260208201905092915050565b6000610d3b82610d42565b9050919050565b600073ffffffffffffffffffffffffffffffffffffffff82169050919050565b6000819050919050565b82818337600083830152505050565b60005b83811015610d99578082015181840152602081019050610d7e565b83811115610da8576000848401525b50505050565b60006002820490506001821680610dc657607f821691505b60208210811415610dda57610dd9610e58565b5b50919050565b6000610deb82610d62565b91507fffffffffffffffffffffffffffffffffffffffffffffffffffffffffffffffff821415610e1e57610e1d610e29565b5b600182019050919050565b7f4e487b7100000000000000000000000000000000000000000000000000000000600052601160045260246000fd5b7f4e487b7100000000000000000000000000000000000000000000000000000000600052602260045260246000fd5b7f4e487b7100000000000000000000000000000000000000000000000000000000600052604160045260246000fd5b6000601f19601f8301169050919050565b610ed081610d30565b8114610edb57600080fd5b5056fea264697066735822122036afd4f1f9cfaf5c8154ed61adffec58f56eefec8d19aa68d5a7eba5c4ca9ae564736f6c63430008000033",
  "immutableReferences": {},
  "source": "pragma solidity ^0.8.0;\npragma experimental ABIEncoderV2;\ncontract parsp{\n    \n    // Kontrat deploy edildiinde deploy eden adresi alr ve onu admin rolne eitler.\n    constructor() public {\n        RolesMap[msg.sender] = \"SUPERVISOR\";\n    }\n    \n    // Report adnda bir yap oluturduk yapnn sahip olduu zellikleri tanmladk.\n    struct Report{\n        uint256 reportID;\n        string reportHash;\n        string reportName;\n        string reportType;\n    }\n\n    // kontrat tarafndan oluturulmu toplam rapor saysnn atanaca deiken.\n    uint256 TotalReportsCount;\n\n\n    Report[] ReportsList;\n    Report[] ValidReportsList;\n\n    mapping(address => string) RolesMap;\n\n    // Reportnin iindeki reportID yi Report ile maplemak iin olutuduruumuz map ilemi. \n    mapping(uint256 => Report) ReportsMap;    \n            \n    mapping(uint256 => string) ReportsValidity;\n\n    // buras rol kontrol eden bir yap bu yapy fonksiyonlarn ierisine ekleyerek sadece admin rolune sahip adreslerin o fonksiyonlar altrmas salanr.\n    modifier checkRole(string memory _role) {\n        require(\n            keccak256(abi.encode(RolesMap[msg.sender])) ==\n                keccak256(abi.encode(_role))\n        );\n        _;\n    }\n    \n     // bunu sadece admin arabilir.(checkAuth yaps sayesinde). stediimiz rolleri adreslere atayabiliriz.\n    function setUserRole(address _userAddress, string memory _role)\n        public\n        checkRole(\"SUPERVISOR\")\n    {\n        RolesMap[_userAddress] = _role;\n    }\n    \n     // adreslere atadmz rolleri buradan kontrol edebiliriz. bunu grntlemek iin de admin olmaa art checkAuth la salanmtr.\n    function getUserRole(address _userAddress)\n        public\n        view\n        returns (string memory)\n    {\n        return RolesMap[_userAddress];\n    }\n    \n    //bu fonksiyon parametre olarak Report alarak ReportList'e kayt eklememizi salar. \n    function createReport(\n        string memory _reportHash,\n        string memory _reportName,\n        string memory _reportType\n        ) public checkRole(\"LABORANT\") {                     //bu fonksyionu sadece CREATER rolne sahip adresler altrabilir.\n            Report memory newReport = Report({     //parametre olarak aldmz deerlerin Reportnin hangi deelrerine eitlememiz gerektiini atadmz yer\n                reportID: TotalReportsCount,\n                reportHash: _reportHash,\n                reportName: _reportName,                            \n                reportType: _reportType\n            });\n        \n        ReportsMap[TotalReportsCount] = newReport;  \n        ReportsValidity[TotalReportsCount] = \"INVALID\";\n        ReportsList.push(newReport);\n        TotalReportsCount++;\n\n    }\n\n\n    \n    /* // GET REPORT FUNCTIONS\n    function getReport(uint256 reportID) public view returns(string memory reportHash, string memory reportName, string memory reportType){\n        Report memory report = ReportsMap[reportID];\n        return (report.reportHash, report.reportName, report.reportType); \n    }*/\n\n    function getAllReports() public view returns (Report[] memory) {\n        return ReportsList;\n    }\n\n    function getReportCount() public view returns(uint256){\n        return TotalReportsCount;\n    }\n}\n\n\n\n\n",
  "sourcePath": "/home/murat/Desktop/pars2/contracts/parsp.sol",
  "compiler": {
    "name": "solc",
    "version": "0.8.0+commit.c7dfd78e.Emscripten.clang"
  },
  "schemaVersion": "3.4.1",
  "updatedAt": "2021-06-22T19:21:54.844Z",
  "devdoc": {
    "kind": "dev",
    "methods": {},
    "version": 1
  },
  "userdoc": {
    "kind": "user",
    "methods": {},
    "version": 1
  }
}